:10146400D3EF9400EE9400401600000075080B754D
:0F14740009BED509FDD508FAEF1F70E41E80E10F
:011483002246
:10159A00D3EF9400EE9400400A000000EF1F70F0B1
:0415AA001E80ED2290
:1015380043BC807F0A7E0012146453DEFC43DE0C39
:0A15480053BCDF53A8DF43DE20226E
:10140100E4FDFC53BCF0EF444042BCE5BC30E5FBDD
:1014110053BCDF53BCBFAFBDEFADBEFCEDAE04FFAF
:0114210022A8
:0D000E00E4F5C7F5C5F5C675C380F5C4223D
:1014E30075C78075F50C75C5038FC4EEF5C375C656
:0E14F3005A75C6A57F0A7E0012146402000E10
:1013DF0075C78075F50C75C5028FC4EEF5C3AF05E3
:1013EF008FC275C65A75C6A57F0A7E001214640295
:0213FF00000EDE
:1014840075C78075F50C75C5018FC4EEF5C375C6B7
:101494005A75C6A57F0A7E00121464AFC202000EFC
:1014C400759418E4F593F5927591F875960EF59563
:0F14D40075B2C2F5B175B48EF5B3F5CAF5C9227C
:1013BB003D3D3D3D3D3D3D3D3D3D20636F646520E5
:1013CB007374617274203D3D3D3D3D3D3D3D3D3D62
:0413DB00200D0A00D7
:10124F0043BA801214C41215521215381215841293
:10125F00156B1215C21212DB1214A412000612160D
:10126F002012008C1215D512162AD2AF1213517BF1
:10127F00FF7A1379BB120109120FBD900249E0B436
:0D128F0001F612131812142212144380EB02
:1012DB0043BA8090FEB6E0F090FEEDE4F090FEEAAB
:1012EB007470F0A3F090FEED7411F090FEF27404A4
:1012FB00F0A37451F090FEF0E4F0A37431F090FE83
:0D130B00B5E04450F090FEE0E04401F02217
:05000600D288D2A822FF
:1015C200438E805389F0758ACD758CD4C28DD28CAE
:0315D200D2A92279
:0A162000538EBF53890F4389102237
:1015D50053D1FDE4F5D575D4DC43D10843AF2022C2
:1015520053A23F759850438E01438E0475D7E875A8
:09156200D6FF438E1075A810227B
:1015840075841043844043D12075D3E875D2FF435A
:06159400D18043AF1022DC
:04078100410107002B
:10156B00E4900000F0900081F0900101F0F0A3F006
:09157B00A3F0A3F0A3F0C2842246
:03009300020F3E1B
:100F3E00C0E0C083C082C0D075D000C007E5843049
:100F4E00E12A5384FD900101E0601AA3E0FF04F052
:100F5E0074012FF582E43400F583E0F585900101EC
:100F6E00E014F08007900102E4F0C284E58430E0E2
:100F7E00335384FE900000E07021900105E0D3947D
:100F8E00804002E4F0900105E02481F582E4340013
:100F9E00F583E585F0900105E004F0900103E4F09F
:0F0FAE00A37405F0D007D0D0D082D083D0E0322A
:03000B0002129C42
:10129C00C0E0C083C082C0D0900103E07002A3E024
:1012AC006024900104E024FFF0900103E034FFF08F
:1012BC00E07002A3E0700F900105E0D394004006AB
:0F12CC009000007401F0D0D0D082D083D0E032F7
:03002300021501C2
:10150100C0E0C083C082309907C299900107E4F01E
:0C151100309802C298D082D083D0E03223
:0B1615008F99900107E070FA04F022AA
:10151D00D2907F027E0012159AC2907F197E001222
:0B152D001464D2907F1E7E0002159A0D
:10002600E490020DF090020CF03090FD7F287E00E7
:1000360012159A30901F2090FD90020DE0FF90025D
:100046000CE0FEC374079EFEF87401088002C333F9
:10005600D8FC4F801B90020DE0FF90020CE0FEC31F
:1000660074079EFEF87401088002C333D8FCF45F5F
:1000760090020DF090020CE004F0E0C3940840A951
:0500860090020DE0FFF7
:01008B002252
:10102B0012151D20905D3090FD2090FD1200269032
:10103B000208EFF0120026900209EFF01200269042
:10104B00020AEFF012002690020BEFF0120026D2EC
:10105B0090900209E0FD900208E0F92DFDE433FCCD
:10106B0090020AE0FE7A002DFDEA3CFCA3E02DFD88
:10107B00EA3CFCEFB5050CEAB5040890010AEEF06A
:03108B00A3E9F0E6
:01108E00223F
:101351007F107E00121484EF645860299002427459
:1013610003F0A3F0A37432F0A37405F0E4A3F0A397
:101371007402F0A37450F0E4900231F0900234F062
:08138100A3F0120E25020D89F4
:100E2500E4FFFE1214E3900242E0FDE4FFFE12131C
:100E3500DF900243E0FD7F017E001213DF90024444
:100E4500E0FD7F027E001213DF900245E0FD7F0387
:100E55007E001213DF900246E0FD7F047E00121330
:100E6500DF900247E0FD7F057E001213DF90024808
:100E7500E0FD7F067E001213DF900231E0FD7F0763
:100E85007E001213DF900234E0FD7F087E0012130E
:100E9500DF900235E0FD7F097E001213DF7D587F6C
:0D0EA500107E001213DF7F0A7E000214642D
:100D8900E4FFFE121484900242EFF01215E57F0190
:100D99007E00121484900243EFF01215F57F037E52
:100DA90000121484900245EFF01212017F027E00B6
:100DB900121484900244EFF01215AE7F047E0012E3
:100DC9001484900246EFF01214227F057E0012145B
:100DD90084900247EFF07F067E0012148490024847
:100DE900EFF07F077E00121484900231EFF07F0844
:100DF9007E00121484900234EFF07F097E001214F1
:100E090084900235EFF0FD900234E0FFED9002325C
:0C0E1900CFF0A3EFF09002497401F0222A
:1007850060FC010C03D503FA04200446046D0495AE
:1007950004BE04E70510053A0565059005BB05E7A8
:1007A5000613063F066C069906C606F30720074D95
:1007B500077A07A707D40800082D0859088508B146
:1007C50008DC09070931095B098409AD09D609FD6A
:1007D5000A240A4B0A710A960ABB0ADE0B020B248D
:1007E5000B460B670B870BA70BC60BE40C020C1E05
:1007F5000C3A0C560C700C8A0CA40CBC0CD40CECEA
:100805000D020D190D2E0D430D570D6B0D7E0D901F
:100815000DA20DB40DC50DD50DE50DF50E040E1289
:100825000E200E2E0E3B0E480E550E610E6D0E78E7
:100835000E830E8D0E970EA10EAB0EB40EBD0EC619
:100845000ECF0ED70EDF0EE70EEF0EF60EFD0F04E0
:100855000F0B0F110F170F1D0F230F290F2F0F351B
:100865000F3A0F3F0F440F490F4E0F530F580F5CB0
:100875000F600F650F690F6D0F710F740F780F7C87
:06008C00E4900109F022DE
:0E0C480090020CEBF0A3EAF0A3E9F0A3EDF0AC
:100C5600E4900213F0A3F0900212F090020FE01459
:100C6600FF900212E0FEC39F507390020CE0FBA3BC
:100C7600E0FAA3E0F975F002EEA4F58285F083129E
:100C86000579FF900210E0FCA3E0FDC39FEC95F010
:100C9600402AA3E02401FFE433FEEF25E0FFEE3314
:100CA600FE8F828E83120579FFC3ED9FEC95F0507F
:100CB6000B900212E0FFA3E4F0A3EFF0C390021141
:100CC600E0947C900210E0940F4009900213E4F047
:100CD600A3747DF0900212E004F0020C61900213FE
:050CE600E0FEA3E0FFA9
:010CEB0022E6
:0510F300900208EFF07F
:1010F800E490020AF0A3F0900209F0900208E0FFE1
:1011080012140190020BE02FF090020AE03EF090DA
:101118000209E004F0E0C3940A40E090020AE0FE0D
:10112800A3E0FF7C007D0A12052490020AEEF0A3DA
:10113800EFF07B017A01790C90020AE0FFA3E090BE
:0C1148000210CFF0A3EFF07D7E020C48F7
:1014A400E490023AF090023FF090023EF09002374E
:1014B400F0A3F0A3F090023B74DCF0A374B4F02228
:0A162A00E4900230F0900236F02246
:030003000213895C
:10138900C0E0C083C082C0D075D000C00690023BC7
:10139900E0FEA3E0F58BEEF58D90023A7401F09032
:1013A900023FF0D28ED2ABD006D0D0D082D083D03B
:0213B900E03220
:03001B000211547B
:10115400C0E0C083C082C0D090023AE0640170361F
:10116400F0900237E0B4010890023EE07002C2C180
:10117400900238E0B4010890023EE07002C2C290CE
:101184000239E0B4010890023EE07002C2C3758BDC
:10119400F7758DFF800AD2C3D2C2D2C1C28EC2AB50
:0911A400D0D0D082D083D0E0321B
:1015AE00EF75F05AA424B4FEE5F034DC90023BF063
:0415BE00A3CEF022A6
:10120100EF14601614601C14602214602A146033F9
:1012110024057039E4900237802E9002377401F072
:10122100E48026E4900237F0A3048012E4900237B0
:10123100F0A3F0A304F0229002377401F0A3F0E4CC
:0E124100A3F0229002377401F0A3F0A3F02274
:1015E500EF75F0B8A4FF90FEF9E5F0F0A3EFF02257
:1015F500EF75F0B8A4FF90FEFBE5F0F0A3EFF02245
:10142200900246E0B4011190023DE090FEFDB4014D
:10143200028008E4F0C2A82290FEFD7480F0D2A8D7
:011442002287
:10131800900109E0640170307F041210F390010815
:10132800EFF012102B900248E0FF900108E0C39FF5
:10133800400A90023E7401F0C2C78007E490023E62
:09134800F0D2C7E4900109F02283
:10144300900236E0B40119900232E0900234F09039
:101453000232A3E0900235F0120E25E4900236F03A
:011463002266
:1011AD00EF24FE601E146032240270477F1E12155C
:1011BD00AE7F031215E5900244741EF09002427446
:1011CD0003802C7F321215AE7F041215E590024478
:1011DD007432F0900242740480157F501215AE7F68
:1011ED00061215E59002447450F09002427406F018
:0411FD00120E252287
:10160500EF90FEFD7004F0C2A8227480F0D2A822EB
:1008850042024A000042024C00004102500042026E
:030895005100000F
:03009B0002063624
:10063600C0E0C0F0C083C082C0D075D000C000C08A
:0706460004C005C006C00757
:10064D0090023D3093057401F08002E4F0900109B1
:10065D00E0702690024BE004F0700690024AE00430
:10066D00F090024AE07004A3E06464700C900109FC
:10067D0004F090024AE4F0A3F090023FE0B40125AB
:10068D0090024DE004F0700690024CE004F09002F0
:10069D004CE0B40110A3E0B4F40B90024CE4F0A3D1
:1006AD00F090023FF090023FE06401703990023704
:1006BD00E0B4010C90023EE0700690024EE004F0B2
:1006CD00900238E0B4010C90023EE0700690024FAB
:1006DD00E004F0900239E0B4010C90023EE07006A7
:1006ED00900250E004F090024FE0FF90024EE02F98
:1006FD00FFE433FE900250E07C002FFFEC3EFE90B5
:10070D000244E0FD120512900251EEF0A3EFF0C38A
:10071D009430EE94754048900230E004F090025110
:10072D00E4F0A3F0900250F090024FF090024EF0E2
:10073D00900230E0B43C28A3E004F0900230E4F0E5
:10074D0090023604F0900231E0B43C13900233E095
:0F075D0004F07006900232E004F0900231E4F0F4
:10076C00D007D006D005D004D000D0D0D082D08312
:05077C00D0F0D0E032D6
:100FBD00900000E064017065F07B017A007981900A
:100FCD000105E024FEFD12108FAD07AC0690010562
:100FDD00E0FB247FF582E43400F583E0FE74802B82
:100FED00F582E43400F583E0FBEBFFE4900105F0BE
:100FFD00EDB50729ECB50625900081E0B41B1EA3C5
:10100D00E024FC600F24FE600E24F6600D240D70AC
:0D101D000C0209A3020A9A020CEC120899B9
:01102A0022A3
:1009A3009002567403F0900085A3E025E090025571
:1009B300F0900083E0FEA3E0FDEDFF900258EEF01F
:1009C300A3EFF0900001741BF0A37403F0900255A1
:1009D300E0900003F0900255E0F9C313FD90025933
:1009E300E02DFD900258E03400FCC3EF9DEE9C40E7
:1009F30003020A91E4900254F0900253F0EE705611
:100A0300EF14601A14602114602B146032146039DF
:100A130024057042E4900253F09002428033E49044
:100A23000253F09002438029900244E0900253F075
:100A3300900245801CE4900253F09002468012E439
:100A4300900253F09002478008E4900253F0900222
:100A530048E0900254F0900253E0FD900256E0FC0F
:100A630004F074012CF582E43400F583EDF0900278
:100A730054E0FD900256E0FC04F074012CF582E48E
:100A83003400F583EDF00FBF00010E0209D8E9240D
:070A930003FD7F03020B814C
:100A9A009002567403F0900085A3E025E090025579
:100AAA00F0900083E0FEA3E0FDEDFF900258EEF027
:100ABA00A3EFF0900001741BF0A37404F0900255A8
:100ACA00E0900003F0AC06900255E0F9C313FF90E2
:100ADA000259E02FFF900258E03400FEC3ED9FEC6C
:100AEA009E4003020B78E4900254F0900253F0EC1B
:100AFA007044ED14601414601E14602A24037036C6
:100B0A00E4900253F0900108801590010BE09002E6
:100B1A0053F090010A8008E4900253F0900231E009
:100B2A00900254F08010900232E0FAA3E0FBEA90BF
:100B3A000253F0A3EBF0900253E0FF900256E0FE5E
:100B4A0004F074012EF582E43400F583EFF090028C
:100B5A0054E0FF900256E0FE04F074012EF582E4A0
:100B6A003400F583EFF00DBD00010C020AD1E9242F
:070B7A0003FD7F04020B8163
:100CEC00900084E0B407004003020D7F900CFFF8E5
:100CFC00282873020D14020D22020D30020D4E0233
:100D0C000D5B020D69020D73900086E0FF900242AC
:100D1C00F01215E5805D900086E0FF900243F01222
:100D2C0015F5804F900085E0900244F0900086E02D
:100D3C00FF900245F0121201900085E0FF1215AEF3
:100D4C008031900086E0900246F0121422802490AC
:100D5C000086E0FF900247F01211AD8016900086DD
:100D6C00E0900248F0800C900086E0FF900249F081
:0D0D7C001216057D087F06120B81020E2560
:100899009002577407F0900087E0900255F090009D
:1008A90083E0FEA3E0FDEDFF900258EEF0A3EFF028
:1008B900900208EEF0A3EFF0900255E0C313FF9009
:1008C9000259E02FFF900258E03400FE900208E040
:1008D900FCA3E0FDC39FEC9E4003020999900257D7
:1008E900E02481F582E43400F583E0900253F0902E
:1008F9000257E02482F582E43400F583E090025443
:10090900F0EC7071ED14601E1460291460441460D9
:100919004E1460592405705D900254E0FF90024224
:10092900F01215E5804F900254E0FF900243F01257
:1009390015F58041900253E0900244F0900254E092
:10094900FF900245F0121201900244E0FF1215AE29
:100959008023900254E0900246F0121422801690EF
:100969000254E0FF900247F01211AD800890025442
:10097900E0900248F0900257E02402F0900209E06A
:1009890004F060030208C1900208E004F00208C103
:0A0999007D087F10120B81020E256D
:050B810090020AEDF0F6
:100B8600EF24FC600F24FE604F24F66064240D60A1
:100B960003020C357B017A00790190020AE0FD120E
:100BA600108F90020BEEF0A3EFF090020BE0FEA385
:100BB600E0FD90020AE0FC2402F582E43400F583AD
:100BC600EDF0EEFF74012CF582E43400F583EFF0CE
:100BD60090020AE02402805378017C007D017B01AB
:100BE6007A0079817E007F081204D390020AE080A1
:100BF6003A78017C007D017B017A0079817E007F55
:100C0600061204D37B017A0079017D0612108F90BB
:100C1600020BEEF0A3EFF090020BE0FEA3E09000D3
:100C260008F0EE900007F090020AE0900101F0D281
:100C3600847F027E001214644384027F017E0002D8
:020C4600146434
:05108F0090020DEDF0E0
:1010940074FFA3F0A3F01204F9FF90020EE0F0A392
:1010A400E06FF0E4FD90020EE0FEA3E0FF30E019F3
:1010B400EEC313FEEF13FFEE64A0FEEF6401FF9096
:1010C400020EEEF0A3EFF0800B90020EE0C313F0DB
:1010D400A3E013F00DEDB408CC740129F9E43AFA55
:0E10E40090020DE014F070AEA3E0FEA3E0FF5A
:0110F20022DB
:03000000020EB23B
:0C0EB200787FE4F6D8FD758121020EF96E
:10040300E709F608DFFA8046E709F208DFFA803EDB
:1004130088828C83E709F0A3DFFA8032E309F608C8
:10042300DFFA8078E309F208DFFA807088828C8330
:10043300E309F0A3DFFA806489828A83E0A3F608E4
:10044300DFFA805889828A83E0A3F208DFFA804CBE
:1004530080D280FA80C680D4806980F28033801095
:1004630080A680EA809A80A880DA80E280CA8033FE
:1004730089828A83ECFAE493A3C8C582C8CCC58376
:10048300CCF0A3C8C582C8CCC583CCDFE9DEE78046
:100493000D89828A83E493A3F608DFF9ECFAA9F0C5
:1004A300EDFB2289828A83ECFAE0A3C8C582C8CC1B
:1004B300C583CCF0A3C8C582C8CCC583CCDFEADE34
:1004C300E880DB89828A83E493A3F208DFF980CC96
:1004D30088F0EF60010E4E60C388F0ED2402B4048F
:1004E3000050B9F582EB2402B4040050AF23234536
:0604F30082239004537304
:1004F900BB010689828A83E0225002E722BBFE0201
:09050900E32289828A83E4932233
:10051200EF8DF0A4A8F0CF8CF0A428CE8DF0A42EFD
:02052200FE22B7
:10052400BC000BBE0029EF8DF084FFADF022E4CCBB
:10053400F875F008EF2FFFEE33FEEC33FCEE9DEC84
:10054400984005FCEE9DFE0FD5F0E9E4CEFD22EDCA
:10055400F8F5F0EE8420D21CFEADF075F008EF2F14
:10056400FFED33FD4007985006D5F0F222C398FD05
:050574000FD5F0EA22A2
:10057900BB0110E58229F582E5833AF583E0F5F0C0
:10058900A3E0225009E92582F886F008E622BBFE9D
:100599000AE92582F8E2F5F008E222E5832AF583E3
:0805A900E993F5F0A3E99322A8
:10009E00E508240BF582E43402F583E0050822908E
:1000AE00020830070390020BE475F0011205F0020E
:1000BE0004F92000E97F2ED2008018EF540F24900F
:1000CE00D43440D4FF30040BEF24BFB41A005003D5
:1000DE002461FFE50960021509050CE50C700205A7
:1000EE000B30070E900208E475F0011205F0EF02D6
:1000FE0005DE0216157403D2078003E4C207F50865
:10010E00900208120607E4F509F50BF50CE50960F7
:10011E00077F201200E180F5750AFFC201C200C2FE
:10012E0002C203C205C206C2081200ADFF700D3036
:10013E0007057F001200F2AF0CAE0B22B4255FC292
:10014E00D5C2041200ADFF24D0B40A00501A75F0C7
:10015E000A780930D50508B6FF0106C6A426F62092
:10016E00D5047002D20380D924CFB41A00EF500404
:10017E00C2E5D2040202F3D20180C6D20080C0D200
:10018E000280BCD2D580BAD20580B47F201200E1A5
:10019E002002077401B5090040F112009EFF120003
:1001AE00E102011BD208D206809512009EFB1200BE
:1001BE009EFA12009EF94A4B700679C47A037BFFB1
:1001CE0020022EE509602A7E008E827583001205BC
:1001DE00B160060EEE650A70F0C2D5EBC0E0EAC063
:1001EE00E0E9C0E0EE12033AD0E0F9D0E0FAD0E058
:1001FE00FB1204F9FF60AAEBC0E0EAC0E0E9C0E040
:10020E001200E1D0E02401F9D0E03400FAD0E0FB96
:10021E00E50A0460DCD50AD980877BFF7A0379363C
:10022E00D202809C791080027908C206C20880082A
:10023E00D2D5790A8004790AC2D5E50A047002F58E
:10024E000AE4FAFDFEFF12009EFC7B082001131249
:10025E00009EFD7B1030000A12009EFE12009EFFD3
:10026E007B20EC3382D592D55013C3E43000069F29
:10027E00FFE49EFEE42001039DFDE49CFCE4CBF82C
:10028E00C201EC700CCFCECDCCE824F8F870F38020
:10029E0017C3EF33FFEE33FEED33FDEC33FCEB33E0
:1002AE00FB994002FB0FD8E9EB300105F8D0E0C412
:1002BE0048B201C0E00AEC4D4E4F78207B0070C270
:1002CE00EAB50A0040BCC0E012033CD0F0D0E020FA
:1002DE000104C4C0E0C4B201C0F01200CAD0F0D50F
:1002EE00F0EB02011B12061001B8530232580189BD
:1002FE004C01854202364F023E44023E49019E4366
:08030E000244550228460228B2
:100316004502284703E450018D2D01912E01B42B8F
:1003260001952301B22003CD2A014D48000001ACFE
:100336003F3F3F00790AA2D5200314300509B910C2
:10034600020404B9080104A2D520060250010420C3
:1003560002689202B509005034C0E07F20300319CC
:100366007F30A20272067205500F120393C202C2B8
:1003760006C205C2087F30800F300503E9C0E012CF
:1003860000E1300503D0E0F9D0E0B509CC3005171F
:100396007F30B9100C1200E17F583004077F788057
:1003A60003B908031200E13002057F2D0200E17F48
:1003B600202008F87F2B2006F322920280CF286E99
:1003C600756C6C2900D20112009E3001F8C20178CA
:1003D6000930D50108F602014D2D50434958120047
:1003E6009E2403B405004001E49003DF931200D27B
:0D03F600743A1200D2D203750904020232DB
:100EBE0002124FE493A3F8E493A34003F68001F2E9
:100ECE0008DFF48029E493A3F85407240CC8C33335
:100EDE00C4540F4420C8834004F456800146F6DF04
:100EEE00E4800B0102040810204080900781E47E0C
:100EFE00019360BCA3FF543F30E509541FFEE493F9
:100F0E00A360010ECF54C025E060A840B8E493A3BF
:100F1E00FAE493A3F8E493A3C8C582C8CAC583CAEA
:100F2E00F0A3C8C582C8CAC583CADFE9DEE780BEA2
:01089800005F
:1005B100BB010CE58229F582E5833AF583E02250FF
:1005C10006E92582F8E622BBFE06E92582F8E22249
:0D05D100E58229F582E5833AF583E4932263
:1005DE00BB010689828A83F0225002F722BBFE01FC
:0205EE00F322F6
:1005F000F8E0FBA3A3E0F925F0F0E5821582700294
:070600001583E0FA38F02237
:09060700EBF0A3EAF0A3E9F022F4
:10061000D083D082F8E4937012740193700DA3A379
:1006200093F8740193F5828883E47374029368608D
:06063000EFA3A3A380DF8D
:00000001FF
